{
	"_format": "hh-sol-artifact-1",
	"contractName": "CryptoChai",
	"sourceName": "contracts/CryptoChai.sol",
	"abi": [
		{
			"inputs": [],
			"stateMutability": "nonpayable",
			"type": "constructor"
		},
		{
			"anonymous": false,
			"inputs": [
				{
					"indexed": true,
					"internalType": "address",
					"name": "from",
					"type": "address"
				},
				{
					"indexed": false,
					"internalType": "string",
					"name": "fromName",
					"type": "string"
				},
				{
					"indexed": true,
					"internalType": "address",
					"name": "to",
					"type": "address"
				},
				{
					"indexed": false,
					"internalType": "string",
					"name": "toName",
					"type": "string"
				},
				{
					"indexed": false,
					"internalType": "string",
					"name": "message",
					"type": "string"
				},
				{
					"indexed": false,
					"internalType": "uint256",
					"name": "timestamp",
					"type": "uint256"
				}
			],
			"name": "NewMemo",
			"type": "event"
		},
		{
			"inputs": [
				{
					"internalType": "uint256",
					"name": "",
					"type": "uint256"
				}
			],
			"name": "Memos",
			"outputs": [
				{
					"internalType": "address",
					"name": "from",
					"type": "address"
				},
				{
					"internalType": "string",
					"name": "fromName",
					"type": "string"
				},
				{
					"internalType": "address",
					"name": "to",
					"type": "address"
				},
				{
					"internalType": "string",
					"name": "toName",
					"type": "string"
				},
				{
					"internalType": "string",
					"name": "message",
					"type": "string"
				},
				{
					"internalType": "uint256",
					"name": "timestamp",
					"type": "uint256"
				}
			],
			"stateMutability": "view",
			"type": "function"
		},
		{
			"inputs": [
				{
					"internalType": "string",
					"name": "_name",
					"type": "string"
				},
				{
					"internalType": "string",
					"name": "_message",
					"type": "string"
				}
			],
			"name": "buyChai",
			"outputs": [],
			"stateMutability": "payable",
			"type": "function"
		},
		{
			"inputs": [],
			"name": "chais",
			"outputs": [
				{
					"internalType": "uint256",
					"name": "",
					"type": "uint256"
				}
			],
			"stateMutability": "view",
			"type": "function"
		},
		{
			"inputs": [],
			"name": "contractDeployer",
			"outputs": [
				{
					"internalType": "address payable",
					"name": "",
					"type": "address"
				}
			],
			"stateMutability": "view",
			"type": "function"
		},
		{
			"inputs": [],
			"name": "getMemos",
			"outputs": [
				{
					"components": [
						{
							"internalType": "address",
							"name": "from",
							"type": "address"
						},
						{
							"internalType": "string",
							"name": "fromName",
							"type": "string"
						},
						{
							"internalType": "address",
							"name": "to",
							"type": "address"
						},
						{
							"internalType": "string",
							"name": "toName",
							"type": "string"
						},
						{
							"internalType": "string",
							"name": "message",
							"type": "string"
						},
						{
							"internalType": "uint256",
							"name": "timestamp",
							"type": "uint256"
						}
					],
					"internalType": "struct CryptoChai.Memo[]",
					"name": "",
					"type": "tuple[]"
				}
			],
			"stateMutability": "view",
			"type": "function"
		},
		{
			"inputs": [],
			"name": "owner",
			"outputs": [
				{
					"internalType": "address payable",
					"name": "",
					"type": "address"
				}
			],
			"stateMutability": "view",
			"type": "function"
		},
		{
			"inputs": [],
			"name": "ownerName",
			"outputs": [
				{
					"internalType": "string",
					"name": "",
					"type": "string"
				}
			],
			"stateMutability": "view",
			"type": "function"
		}
	],
	"bytecode": "0x60806040523480156200001157600080fd5b5033600160006101000a81548173ffffffffffffffffffffffffffffffffffffffff021916908373ffffffffffffffffffffffffffffffffffffffff160217905550336000806101000a81548173ffffffffffffffffffffffffffffffffffffffff021916908373ffffffffffffffffffffffffffffffffffffffff1602179055506040518060400160405280600781526020017f797570756461790000000000000000000000000000000000000000000000000081525060029080519060200190620000e0929190620000ef565b50600060048190555062000204565b828054620000fd906200019f565b90600052602060002090601f0160209004810192826200012157600085556200016d565b82601f106200013c57805160ff19168380011785556200016d565b828001600101855582156200016d579182015b828111156200016c5782518255916020019190600101906200014f565b5b5090506200017c919062000180565b5090565b5b808211156200019b57600081600090555060010162000181565b5090565b60006002820490506001821680620001b857607f821691505b60208210811415620001cf57620001ce620001d5565b5b50919050565b7f4e487b7100000000000000000000000000000000000000000000000000000000600052602260045260246000fd5b61140680620002146000396000f3fe6080604052600436106100705760003560e01c8063865c51721161004e578063865c5172146100fe5780638da5cb5b14610129578063a24bfc6e14610154578063d43b1bc61461017f57610070565b806365ac2320146100755780636a13d859146100a057806376ad31e5146100bc575b600080fd5b34801561008157600080fd5b5061008a6101aa565b604051610097919061102e565b60405180910390f35b6100ba60048036038101906100b59190610c66565b610238565b005b3480156100c857600080fd5b506100e360048036038101906100de9190610cd2565b610607565b6040516100f596959493929190610f96565b60405180910390f35b34801561010a57600080fd5b5061011361082b565b604051610120919061100c565b60405180910390f35b34801561013557600080fd5b5061013e610af6565b60405161014b9190610f7b565b60405180910390f35b34801561016057600080fd5b50610169610b1c565b6040516101769190610f7b565b60405180910390f35b34801561018b57600080fd5b50610194610b40565b6040516101a191906110ca565b60405180910390f35b600280546101b790611246565b80601f01602080910402602001604051908101604052809291908181526020018280546101e390611246565b80156102305780601f1061020557610100808354040283529160200191610230565b820191906000526020600020905b81548152906001019060200180831161021357829003601f168201915b505050505081565b6000341161027b576040517f08c379a0000000000000000000000000000000000000000000000000000000008152600401610272906110aa565b60405180910390fd5b60036040518060c001604052803373ffffffffffffffffffffffffffffffffffffffff168152602001848152602001600160009054906101000a900473ffffffffffffffffffffffffffffffffffffffff1673ffffffffffffffffffffffffffffffffffffffff168152602001600280546102f590611246565b80601f016020809104026020016040519081016040528092919081815260200182805461032190611246565b801561036e5780601f106103435761010080835404028352916020019161036e565b820191906000526020600020905b81548152906001019060200180831161035157829003601f168201915b5050505050815260200183815260200142815250908060018154018082558091505060019003906000526020600020906006020160009091909190915060008201518160000160006101000a81548173ffffffffffffffffffffffffffffffffffffffff021916908373ffffffffffffffffffffffffffffffffffffffff160217905550602082015181600101908051906020019061040e929190610b46565b5060408201518160020160006101000a81548173ffffffffffffffffffffffffffffffffffffffff021916908373ffffffffffffffffffffffffffffffffffffffff1602179055506060820151816003019080519060200190610472929190610b46565b50608082015181600401908051906020019061048f929190610b46565b5060a082015181600501555050600160009054906101000a900473ffffffffffffffffffffffffffffffffffffffff1673ffffffffffffffffffffffffffffffffffffffff163373ffffffffffffffffffffffffffffffffffffffff167f751f54d82a18334ccca8a35dd1bd9d8fad321e8a4e13cb01805dfee0e8e0d2a284600285426040516105229493929190611050565b60405180910390a3600160009054906101000a900473ffffffffffffffffffffffffffffffffffffffff1673ffffffffffffffffffffffffffffffffffffffff166108fc479081150290604051600060405180830381858888f19350505050158015610592573d6000803e3d6000fd5b50600460008154809291906105a6906112a9565b919050555033600160006101000a81548173ffffffffffffffffffffffffffffffffffffffff021916908373ffffffffffffffffffffffffffffffffffffffff1602179055508160029080519060200190610602929190610b46565b505050565b6003818154811061061757600080fd5b90600052602060002090600602016000915090508060000160009054906101000a900473ffffffffffffffffffffffffffffffffffffffff169080600101805461066090611246565b80601f016020809104026020016040519081016040528092919081815260200182805461068c90611246565b80156106d95780601f106106ae576101008083540402835291602001916106d9565b820191906000526020600020905b8154815290600101906020018083116106bc57829003601f168201915b5050505050908060020160009054906101000a900473ffffffffffffffffffffffffffffffffffffffff169080600301805461071490611246565b80601f016020809104026020016040519081016040528092919081815260200182805461074090611246565b801561078d5780601f106107625761010080835404028352916020019161078d565b820191906000526020600020905b81548152906001019060200180831161077057829003601f168201915b5050505050908060040180546107a290611246565b80601f01602080910402602001604051908101604052809291908181526020018280546107ce90611246565b801561081b5780601f106107f05761010080835404028352916020019161081b565b820191906000526020600020905b8154815290600101906020018083116107fe57829003601f168201915b5050505050908060050154905086565b60606003805480602002602001604051908101604052809291908181526020016000905b82821015610aed57838290600052602060002090600602016040518060c00160405290816000820160009054906101000a900473ffffffffffffffffffffffffffffffffffffffff1673ffffffffffffffffffffffffffffffffffffffff1673ffffffffffffffffffffffffffffffffffffffff1681526020016001820180546108d890611246565b80601f016020809104026020016040519081016040528092919081815260200182805461090490611246565b80156109515780601f1061092657610100808354040283529160200191610951565b820191906000526020600020905b81548152906001019060200180831161093457829003601f168201915b505050505081526020016002820160009054906101000a900473ffffffffffffffffffffffffffffffffffffffff1673ffffffffffffffffffffffffffffffffffffffff1673ffffffffffffffffffffffffffffffffffffffff1681526020016003820180546109c090611246565b80601f01602080910402602001604051908101604052809291908181526020018280546109ec90611246565b8015610a395780601f10610a0e57610100808354040283529160200191610a39565b820191906000526020600020905b815481529060010190602001808311610a1c57829003601f168201915b50505050508152602001600482018054610a5290611246565b80601f0160208091040260200160405190810160405280929190818152602001828054610a7e90611246565b8015610acb5780601f10610aa057610100808354040283529160200191610acb565b820191906000526020600020905b815481529060010190602001808311610aae57829003601f168201915b505050505081526020016005820154815250508152602001906001019061084f565b50505050905090565b600160009054906101000a900473ffffffffffffffffffffffffffffffffffffffff1681565b60008054906101000a900473ffffffffffffffffffffffffffffffffffffffff1681565b60045481565b828054610b5290611246565b90600052602060002090601f016020900481019282610b745760008555610bbb565b82601f10610b8d57805160ff1916838001178555610bbb565b82800160010185558215610bbb579182015b82811115610bba578251825591602001919060010190610b9f565b5b509050610bc89190610bcc565b5090565b5b80821115610be5576000816000905550600101610bcd565b5090565b6000610bfc610bf78461110a565b6110e5565b905082815260208101848484011115610c1457600080fd5b610c1f848285611204565b509392505050565b600082601f830112610c3857600080fd5b8135610c48848260208601610be9565b91505092915050565b600081359050610c60816113b9565b92915050565b60008060408385031215610c7957600080fd5b600083013567ffffffffffffffff811115610c9357600080fd5b610c9f85828601610c27565b925050602083013567ffffffffffffffff811115610cbc57600080fd5b610cc885828601610c27565b9150509250929050565b600060208284031215610ce457600080fd5b6000610cf284828501610c51565b91505092915050565b6000610d078383610ec6565b905092915050565b610d18816111c8565b82525050565b610d27816111b6565b82525050565b610d36816111b6565b82525050565b6000610d4782611160565b610d518185611183565b935083602082028501610d638561113b565b8060005b85811015610d9f5784840389528151610d808582610cfb565b9450610d8b83611176565b925060208a01995050600181019050610d67565b50829750879550505050505092915050565b6000610dbc8261116b565b610dc68185611194565b9350610dd6818560208601611213565b610ddf8161137f565b840191505092915050565b6000610df58261116b565b610dff81856111a5565b9350610e0f818560208601611213565b610e188161137f565b840191505092915050565b60008154610e3081611246565b610e3a81866111a5565b94506001821660008114610e555760018114610e6757610e9a565b60ff1983168652602086019350610e9a565b610e708561114b565b60005b83811015610e9257815481890152600182019150602081019050610e73565b808801955050505b50505092915050565b6000610eb06014836111a5565b9150610ebb82611390565b602082019050919050565b600060c083016000830151610ede6000860182610d1e565b5060208301518482036020860152610ef68282610db1565b9150506040830151610f0b6040860182610d1e565b5060608301518482036060860152610f238282610db1565b91505060808301518482036080860152610f3d8282610db1565b91505060a0830151610f5260a0860182610f5d565b508091505092915050565b610f66816111fa565b82525050565b610f75816111fa565b82525050565b6000602082019050610f906000830184610d0f565b92915050565b600060c082019050610fab6000830189610d2d565b8181036020830152610fbd8188610dea565b9050610fcc6040830187610d2d565b8181036060830152610fde8186610dea565b90508181036080830152610ff28185610dea565b905061100160a0830184610f6c565b979650505050505050565b600060208201905081810360008301526110268184610d3c565b905092915050565b600060208201905081810360008301526110488184610dea565b905092915050565b6000608082019050818103600083015261106a8187610dea565b9050818103602083015261107e8186610e23565b905081810360408301526110928185610dea565b90506110a16060830184610f6c565b95945050505050565b600060208201905081810360008301526110c381610ea3565b9050919050565b60006020820190506110df6000830184610f6c565b92915050565b60006110ef611100565b90506110fb8282611278565b919050565b6000604051905090565b600067ffffffffffffffff82111561112557611124611350565b5b61112e8261137f565b9050602081019050919050565b6000819050602082019050919050565b60008190508160005260206000209050919050565b600081519050919050565b600081519050919050565b6000602082019050919050565b600082825260208201905092915050565b600082825260208201905092915050565b600082825260208201905092915050565b60006111c1826111da565b9050919050565b60006111d3826111da565b9050919050565b600073ffffffffffffffffffffffffffffffffffffffff82169050919050565b6000819050919050565b82818337600083830152505050565b60005b83811015611231578082015181840152602081019050611216565b83811115611240576000848401525b50505050565b6000600282049050600182168061125e57607f821691505b6020821081141561127257611271611321565b5b50919050565b6112818261137f565b810181811067ffffffffffffffff821117156112a05761129f611350565b5b80604052505050565b60006112b4826111fa565b91507fffffffffffffffffffffffffffffffffffffffffffffffffffffffffffffffff8214156112e7576112e66112f2565b5b600182019050919050565b7f4e487b7100000000000000000000000000000000000000000000000000000000600052601160045260246000fd5b7f4e487b7100000000000000000000000000000000000000000000000000000000600052602260045260246000fd5b7f4e487b7100000000000000000000000000000000000000000000000000000000600052604160045260246000fd5b6000601f19601f8301169050919050565b7f496e73756666696369656e7420416d6f756e7421000000000000000000000000600082015250565b6113c2816111fa565b81146113cd57600080fd5b5056fea264697066735822122074cdd804ed224f256fbeb8de9aa10f5bd9aca9060128703ad94858c69924adcf64736f6c63430008040033",
	"linkReferences": {},
	"deployedLinkReferences": {}
}